:020000040800F2
:1000000068060020BD010008C5010008C7010008FE
:10001000C9010008CB010008CD0100080000000064
:10002000000000000000000000000000CF010008F8
:10003000D101000800000000D3010008D50100082C
:10004000D7010008D7010008D7010008D701000830
:10005000D7010008D7010008D7010008D701000820
:10006000D7010008D7010008D7010008D701000810
:10007000D7010008D7010008D7010008D701000800
:10008000D7010008D7010008D701000800000000D0
:10009000000000000000000000000000D701000880
:1000A000D7010008D7010008D7010008D7010008D0
:1000B000D7010008D7010008D7010008D7010008C0
:1000C000D7010008D7010008D7010008D7010008B0
:1000D000D7010008D7010008D7010008D7010008A0
:1000E000AD020008D7010008D70100080000000099
:1000F0000000000000000000000000000000000000
:1001000000000000000000000000000000000000EF
:100110000000000000000000D7010008D70100081F
:1001200000F002F800F03AF80AA090E8000C8244CF
:100130008344AAF10107DA4501D100F02FF8AFF2AC
:10014000090EBAE80F0013F0010F18BFFB1A43F0B5
:1001500001031847D0090000F0090000103A24BF3D
:1001600078C878C1FAD8520724BF30C830C144BF1C
:1001700004680C607047000000230024002500265E
:10018000103A28BF78C1FBD8520728BF30C148BFFA
:100190000B6070471FB51FBD10B510BD00F031F8E2
:1001A0001146FFF7F7FF00F047FB00F04FF803B4EC
:1001B000FFF7F2FF03BC00F057F800000948804742
:1001C00009480047FEE7FEE7FEE7FEE7FEE7FEE739
:1001D000FEE7FEE7FEE7FEE704480549054A064B51
:1001E000704700002906000821010008680000206F
:1001F00068060020680200206802002070477047EF
:100200007047754600F02CF8AE4605006946534627
:1002100020F00700854618B020B5FFF7DDFFBDE8E8
:1002200020404FF000064FF000074FF000084FF05D
:10023000000B21F00701AC46ACE8C009ACE8C009EE
:10024000ACE8C009ACE8C0098D46704710B504465B
:10025000AFF300802046BDE81040FFF7A8BF0000C4
:10026000004870470800002001491820ABBEFEE797
:1002700026000200704700000348806940F001003A
:10028000014988617047000000100240064840683C
:1002900040F00070044948600846406940F00101A0
:1002A00001484161704700000000014010B54CF268
:1002B000503000F0B9FA1148006840F480500F49FE
:1002C00008600F48007898B90E48006800F4805024
:1002D000B0F5805F0CD00C480078401C0A490870CB
:1002E00000BF0848006800F48050B0F5805FF8D186
:1002F0004CF2503000F098FA10BD00001404014098
:1003000001000020080C01400000002010B500246E
:100310000020214908602148006940F080701F4991
:100320000861142000F080FA1C48006940F48070D5
:100330001A490861362000F077FA1848006940F041
:100340008070164908610CE013480068401C12498F
:100350000860084600684EF66021884201D9642092
:1003600010BD0E48806800F40070B0F5007FEBD13E
:1003700003E00C2000F058FAE41C0848806800F400
:100380000070B0F5007FF4D004EB840040003A2107
:10039000B0FBF1F42046E3E7040000200010014028
:1003A00010B500240020214908602148006840F46D
:1003B00080101F490860142000F036FA1C480068BD
:1003C00040F010001A490860362000F02DFA184855
:1003D000006840F48010164908600CE0134800687B
:1003E000401C12490860084600684EF660218842A9
:1003F00001D9642010BD0F48006800F40040B0F53A
:10040000004FEBD103E00C2000F00EFAE41C094889
:10041000006800F40040B0F5004FF4D004EB840015
:1004200040003A21B0FBF1F42046E3E7040000204D
:10043000100C0140080801400348806940F01C008E
:100440000149886170470000001002401D480068A3
:1004500040F430601B4908600846006820F4806062
:1004600008601948406840F0030017494860084692
:10047000406820F00C0048601248006840F44010CA
:10048000104908600846006820F440000860081F12
:10049000006840F44030091F08600846006820F4F6
:1004A00040300860094800684BF6BB3108430749F3
:1004B00008600846006844F24441884303490860E4
:1004C00070470000040C0140001001400408014086
:1004D00010B500240020224908602248006840F03E
:1004E000005020490860142000F09EF91D48006863
:1004F00040F400501B490860362000F095F9194877
:10050000006840F00050174908600CE0144800688B
:10051000401C13490860084600684EF66021884276
:1005200001D9642010BD0F480838006800F48040ED
:10053000B0F5804FEAD103E00C2000F075F9E41C1F
:1005400008480838006800F48040B0F5804FF3D0C8
:1005500004EB840040003A21B0FBF1F42046E1E7CF
:1005600004000020100C014010B500F001F810BD8F
:100570000CB50020019000902A48006840F48030BB
:100580002849086000BF2748006800F40030009048
:100590000198401C0190009818B90198B0F5A06F1F
:1005A000F1D12048006800F4003010B10120009023
:1005B00001E0002000900098012831D119484068DE
:1005C00018494860084640684860084640684860E6
:1005D0000846406820F47C1048600846406840F4B3
:1005E000981048600846006840F08070086000BFBE
:1005F0000C48006800F000700028F9D009484068F5
:1006000020F00300074948600846406840F00200B7
:10061000486000BF0348406800F00C000828F9D18A
:100620000CBD00000010024010B51448006840F0F6
:1006300001001249086008464068114908400F4906
:100640004860084600680F4908400C4908600846A1
:10065000006820F4802008600846406820F4FE000E
:1006600048604FF41F0088600020C862FFF77CFFDD
:100670004FF000600449086010BD00000010024007
:100680000000FFF8FFFFF6FE08ED00E0152004492A
:100690000880091D0880091D0880091D0880704711
:1006A000342C0140064908801521054A121D11808D
:1006B000111D08801521024A0C321180704700007C
:1006C000342C01402848008840F001002649088069
:1006D000081D008840F4AA40091D088022481430F3
:1006E000008840F00100204914310880081D00886E
:1006F00040F06C00091D08800846008840F4D8408E
:100700000880081D008840F06C00091D088008461C
:10071000008840F4D8400880081D008841F211117B
:10072000084311492031088040F65F100E492831F6
:1007300008801420091D088015200B4934310880D9
:10074000091D0880091D0880091D0880081D0088F2
:1007500040F40440091D08800348008840F08100EF
:100760000149088070470000002C01401520054910
:100770000880091D08800120091D08801520091D19
:1007800008807047342C014001200549088015205D
:10079000091D0880091D0880091D08807047000098
:1007A000342C01400348806940F4006001498861AD
:1007B000704700000010024000BF05490988C1F3DE
:1007C000C0110029F9D00249091D088070470000B6
:1007D0000048004000B50246002303E0D05CFFF76C
:1007E000EBFF5B1CD05C0028F8D100BD08480088F6
:1007F00040F400500649088040F6C410091F0880E4
:10080000081D008840F00800091D0880704700009E
:100810000C4800400348C06940F480200149C86189
:100820007047000000100240002100BF00E0491C9A
:100830008142FCD37047000070B500F051F9FFF71A
:10084000FBFDFFF719FDFFF7ADFFFFF7E3FFFFF734
:100850001DFDFFF7FBFD7448006840F480507249AD
:10086000086071480C30006840F480506E490C31CB
:1008700008606E48006840F480704FF0E021C1F8D5
:100880000401FFF71FFFFFF7B1FF0024CAE068482B
:10089000006800F0010000B3012466A0FFF79AFF92
:1008A00014E0FFF733FD282802D2FFF75FFF0DE0C9
:1008B000FFF72CFD462806D9FFF70AFE462802D985
:1008C000FFF762FF02E00520FFF7ECFE5D480068DD
:1008D00000F48050B0F5805FE3D1A0E05AA0FFF7AC
:1008E00079FF31E05748006800F48050B0F5805F30
:1008F00006D0FFF7CBFE5BA0FFF76CFF002070BDBA
:10090000FFF704FD282802D2FFF730FF0DE0FFF7C4
:10091000FDFC462806D9FFF7DBFD462802D9FFF784
:1009200033FF02E00420FFF7BDFEFFF739FD642826
:100930000AD2FFF7ABFE57A0FFF74CFF00205D493E
:10094000087001205C4908705A4800780028C9D115
:10095000FFF70CFF00BFFFF723FDB0F57A7FFAD356
:100960005648FFF761FF0DE0FFF7B2FD642803D39F
:10097000FFF7CCFC642802D2FFF7F8FE02E0072064
:10098000FFF790FEFFF7A4FDB0F57A7F04D2FFF7E2
:10099000BDFCB0F57A7FE7D3FFF7F6FE00204849AB
:1009A000087020E0FFF7B2FC3C2802D2FFF7DEFE21
:1009B0000DE0FFF7ABFC462806D9FFF789FD462876
:1009C00002D9FFF7E1FE02E00720FFF76BFEFFF719
:1009D000E7FC642807D2FFF759FE0020364908706B
:1009E000012034490870344800780028DAD135A055
:1009F000FFF7F0FE3248007800F088F80546FFF770
:100A0000DBFE32A0FFF7E6FEFFF7B0FE00BFFFF708
:100A1000C7FCB0F57A7FFAD33048FFF705FF002C0A
:100A20007FF45CAF33E700000004014004E100E024
:100A300008080140427574746F6E205072657373BC
:100A400065640A00080C01404E617669676174694B
:100A50006E672041726F756E6420436F7563682EF8
:100A60002E2E0A00537461727420506F736974697A
:100A70006F6E2073656E7365642C206E6176696796
:100A80006174696F6E20636F6D706C657465212190
:100A90000A000000476F696E672061726F756E64AF
:100AA00020746865206F62737461636C652E2E2EEE
:100AB0000A000000010000200200002000093D00A3
:100AC00000000020426F782023000000207761732F
:100AD0002064657465637465640A0000C0C62D00F7
:100AE00000200749074A51600749116003E00549A2
:100AF000096801F00070B0F1007FF8D17047000084
:100B00000200050000100240810000010146C8B249
:100B1000092903DD00F13702D0B202E000F1300212
:100B2000D0B27047440B000800000020080000000D
:100B30005C0100084C0B0008080000206006000063
:0C0B400078010008000100000000000027
:04000005080001BD31
:00000001FF
